{
  "abi": [
    {
      "anonymous": false,
      "inputs": [
        {
          "indexed": true,
          "internalType": "address",
          "name": "target",
          "type": "address"
        },
        {
          "indexed": true,
          "internalType": "uint256",
          "name": "value",
          "type": "uint256"
        },
        {
          "indexed": false,
          "internalType": "bytes",
          "name": "data",
          "type": "bytes"
        }
      ],
      "name": "TransactionExecuted",
      "type": "event"
    },
    {
      "inputs": [
        {
          "internalType": "address",
          "name": "_target",
          "type": "address"
        },
        {
          "internalType": "uint256",
          "name": "_value",
          "type": "uint256"
        },
        {
          "internalType": "bytes",
          "name": "_data",
          "type": "bytes"
        }
      ],
      "name": "executeCall",
      "outputs": [
        {
          "internalType": "bytes",
          "name": "_result",
          "type": "bytes"
        }
      ],
      "stateMutability": "payable",
      "type": "function"
    },
    {
      "inputs": [
        {
          "internalType": "bytes32",
          "name": "hash",
          "type": "bytes32"
        },
        {
          "internalType": "bytes",
          "name": "signature",
          "type": "bytes"
        }
      ],
      "name": "isValidSignature",
      "outputs": [
        {
          "internalType": "bytes4",
          "name": "magicValue",
          "type": "bytes4"
        }
      ],
      "stateMutability": "view",
      "type": "function"
    },
    {
      "inputs": [],
      "name": "nonce",
      "outputs": [
        {
          "internalType": "uint256",
          "name": "",
          "type": "uint256"
        }
      ],
      "stateMutability": "view",
      "type": "function"
    },
    {
      "inputs": [
        {
          "internalType": "address",
          "name": "",
          "type": "address"
        },
        {
          "internalType": "address",
          "name": "",
          "type": "address"
        },
        {
          "internalType": "uint256[]",
          "name": "",
          "type": "uint256[]"
        },
        {
          "internalType": "uint256[]",
          "name": "",
          "type": "uint256[]"
        },
        {
          "internalType": "bytes",
          "name": "",
          "type": "bytes"
        }
      ],
      "name": "onERC1155BatchReceived",
      "outputs": [
        {
          "internalType": "bytes4",
          "name": "",
          "type": "bytes4"
        }
      ],
      "stateMutability": "pure",
      "type": "function"
    },
    {
      "inputs": [
        {
          "internalType": "address",
          "name": "",
          "type": "address"
        },
        {
          "internalType": "address",
          "name": "",
          "type": "address"
        },
        {
          "internalType": "uint256",
          "name": "",
          "type": "uint256"
        },
        {
          "internalType": "uint256",
          "name": "",
          "type": "uint256"
        },
        {
          "internalType": "bytes",
          "name": "",
          "type": "bytes"
        }
      ],
      "name": "onERC1155Received",
      "outputs": [
        {
          "internalType": "bytes4",
          "name": "",
          "type": "bytes4"
        }
      ],
      "stateMutability": "pure",
      "type": "function"
    },
    {
      "inputs": [
        {
          "internalType": "address",
          "name": "",
          "type": "address"
        },
        {
          "internalType": "address",
          "name": "",
          "type": "address"
        },
        {
          "internalType": "uint256",
          "name": "receivedTokenId",
          "type": "uint256"
        },
        {
          "internalType": "bytes",
          "name": "",
          "type": "bytes"
        }
      ],
      "name": "onERC721Received",
      "outputs": [
        {
          "internalType": "bytes4",
          "name": "",
          "type": "bytes4"
        }
      ],
      "stateMutability": "view",
      "type": "function"
    },
    {
      "inputs": [],
      "name": "owner",
      "outputs": [
        {
          "internalType": "address",
          "name": "",
          "type": "address"
        }
      ],
      "stateMutability": "view",
      "type": "function"
    },
    {
      "inputs": [
        {
          "internalType": "bytes4",
          "name": "interfaceId",
          "type": "bytes4"
        }
      ],
      "name": "supportsInterface",
      "outputs": [
        {
          "internalType": "bool",
          "name": "",
          "type": "bool"
        }
      ],
      "stateMutability": "pure",
      "type": "function"
    },
    {
      "inputs": [],
      "name": "token",
      "outputs": [
        {
          "internalType": "uint256",
          "name": "",
          "type": "uint256"
        },
        {
          "internalType": "address",
          "name": "",
          "type": "address"
        },
        {
          "internalType": "uint256",
          "name": "",
          "type": "uint256"
        }
      ],
      "stateMutability": "view",
      "type": "function"
    },
    {
      "inputs": [
        {
          "internalType": "address",
          "name": "implementation_",
          "type": "address"
        }
      ],
      "name": "upgrade",
      "outputs": [],
      "stateMutability": "nonpayable",
      "type": "function"
    },
    {
      "stateMutability": "payable",
      "type": "receive"
    }
  ],
  "bytecode": {
    "object": "0x608060405234801561001057600080fd5b506110e5806100206000396000f3fe6080604052600436106100955760003560e01c80639e5d4c49116100595780639e5d4c491461017e578063affed0e01461019e578063bc197c81146101bc578063f23a6e61146101e8578063fc0c546a1461021457600080fd5b806301ffc9a7146100a15780630900f010146100d6578063150b7a02146100f85780631626ba7e146101315780638da5cb5b1461015157600080fd5b3661009c57005b600080fd5b3480156100ad57600080fd5b506100c16100bc366004610b04565b61024c565b60405190151581526020015b60405180910390f35b3480156100e257600080fd5b506100f66100f1366004610b46565b6102b9565b005b34801561010457600080fd5b50610118610113366004610c1a565b6103bc565b6040516001600160e01b031990911681526020016100cd565b34801561013d57600080fd5b5061011861014c366004610c86565b6103d9565b34801561015d57600080fd5b50610166610410565b6040516001600160a01b0390911681526020016100cd565b61019161018c366004610ccd565b6104a6565b6040516100cd9190610da6565b3480156101aa57600080fd5b506000546040519081526020016100cd565b3480156101c857600080fd5b506101186101d7366004610e39565b63bc197c8160e01b95945050505050565b3480156101f457600080fd5b50610118610203366004610ee7565b63f23a6e6160e01b95945050505050565b34801561022057600080fd5b506102296105e3565b604080519384526001600160a01b039092166020840152908201526060016100cd565b60006001600160e01b03198216630801407360e31b148061027d57506001600160e01b03198216630271189760e51b145b8061029857506001600160e01b03198216630a85bd0160e11b145b806102b357506001600160e01b031982166301ffc9a760e01b145b92915050565b336102c2610410565b6001600160a01b0316146103135760405162461bcd60e51b815260206004820152601360248201527221b0b63632b91034b9903737ba1037bbb732b960691b60448201526064015b60405180910390fd5b6001600160a01b0381166103695760405162461bcd60e51b815260206004820152601e60248201527f496e76616c696420696d706c656d656e746174696f6e20616464726573730000604482015260640161030a565b600080815461037790610f50565b909155507f360894a13ba1a3210667c828492db98dca3e2076cc3735a920a3ca505d382bbc80546001600160a01b0319166001600160a01b0392909216919091179055565b60006103c833846105fb565b50630a85bd0160e11b949350505050565b6000806103ee6103e7610410565b8585610864565b905080156104065750630b135d3f60e11b90506102b3565b5060009392505050565b60008060008061041e6109a8565b925092509250468314610435576000935050505090565b6040516331a9108f60e11b8152600481018290526001600160a01b03831690636352211e90602401602060405180830381865afa15801561047a573d6000803e3d6000fd5b505050506040513d601f19601f8201168201806040525081019061049e9190610f77565b935050505090565b6060336104b1610410565b6001600160a01b0316146104fd5760405162461bcd60e51b815260206004820152601360248201527221b0b63632b91034b9903737ba1037bbb732b960691b604482015260640161030a565b600080815461050b90610f50565b919050819055506000856001600160a01b031685858560405161052f929190610f94565b60006040518083038185875af1925050503d806000811461056c576040519150601f19603f3d011682016040523d82523d6000602084013e610571565b606091505b509250905081816105955760405162461bcd60e51b815260040161030a9190610da6565b5084866001600160a01b03167f47d99ad340f52da66535aff7e10da1ceb85a32bcbd9fa1c42314d194545e14d286866040516105d2929190610fa4565b60405180910390a350949350505050565b60008060006105f06109a8565b925092509250909192565b60008060006106086109a8565b925092509250468314158061062f5750816001600160a01b0316856001600160a01b031614155b8061063a5750808414155b61067c5760405162461bcd60e51b815260206004820152601360248201527221b0b73737ba1037bbb7103cb7bab939b2b63360691b604482015260640161030a565b6000610686610410565b9050306001600160a01b038216036106b05760405162461bcd60e51b815260040161030a90610fd3565b60005b6001600160a01b0382163b1561085b57816001600160a01b031663fc0c546a6040518163ffffffff1660e01b8152600401606060405180830381865afa92505050801561071d575060408051601f3d908101601f1916820190925261071a9181019061100a565b60015b1561085b5746831415806107435750896001600160a01b0316826001600160a01b031614155b8061074e5750888114155b61076a5760405162461bcd60e51b815260040161030a90610fd3565b6040516331a9108f60e11b8152600481018290526001600160a01b03831690636352211e90602401602060405180830381865afa1580156107af573d6000803e3d6000fd5b505050506040513d601f19601f820116820180604052508101906107d39190610f77565b9450306001600160a01b038616036107fd5760405162461bcd60e51b815260040161030a90610fd3565b505050806001019050806005036108565760405162461bcd60e51b815260206004820152601860248201527f4f776e65727368697020636861696e20746f6f20646565700000000000000000604482015260640161030a565b6106b3565b50505050505050565b600080600061087385856109fb565b9092509050600081600481111561088c5761088c611043565b1480156108aa5750856001600160a01b0316826001600160a01b0316145b156108ba576001925050506109a1565b600080876001600160a01b0316631626ba7e60e01b88886040516024016108e2929190611059565b60408051601f198184030181529181526020820180516001600160e01b03166001600160e01b0319909416939093179092529051610920919061107a565b600060405180830381855afa9150503d806000811461095b576040519150601f19603f3d011682016040523d82523d6000602084013e610960565b606091505b5091509150818015610973575080516020145b801561099a57508051630b135d3f60e11b906109989083016020908101908401611096565b145b9450505050505b9392505050565b604080516060808252608082019092526000918291829182919060208201818036833701905050905060ad604d60208301303c808060200190518101906109ef919061100a565b93509350935050909192565b6000808251604103610a315760208301516040840151606085015160001a610a2587828585610a40565b94509450505050610a39565b506000905060025b9250929050565b6000807f7fffffffffffffffffffffffffffffff5d576e7357a4501ddfe92f46681b20a0831115610a775750600090506003610afb565b6040805160008082526020820180845289905260ff881692820192909252606081018690526080810185905260019060a0016020604051602081039080840390855afa158015610acb573d6000803e3d6000fd5b5050604051601f1901519150506001600160a01b038116610af457600060019250925050610afb565b9150600090505b94509492505050565b600060208284031215610b1657600080fd5b81356001600160e01b0319811681146109a157600080fd5b6001600160a01b0381168114610b4357600080fd5b50565b600060208284031215610b5857600080fd5b81356109a181610b2e565b634e487b7160e01b600052604160045260246000fd5b604051601f8201601f1916810167ffffffffffffffff81118282101715610ba257610ba2610b63565b604052919050565b600082601f830112610bbb57600080fd5b813567ffffffffffffffff811115610bd557610bd5610b63565b610be8601f8201601f1916602001610b79565b818152846020838601011115610bfd57600080fd5b816020850160208301376000918101602001919091529392505050565b60008060008060808587031215610c3057600080fd5b8435610c3b81610b2e565b93506020850135610c4b81610b2e565b925060408501359150606085013567ffffffffffffffff811115610c6e57600080fd5b610c7a87828801610baa565b91505092959194509250565b60008060408385031215610c9957600080fd5b82359150602083013567ffffffffffffffff811115610cb757600080fd5b610cc385828601610baa565b9150509250929050565b60008060008060608587031215610ce357600080fd5b8435610cee81610b2e565b935060208501359250604085013567ffffffffffffffff80821115610d1257600080fd5b818701915087601f830112610d2657600080fd5b813581811115610d3557600080fd5b886020828501011115610d4757600080fd5b95989497505060200194505050565b60005b83811015610d71578181015183820152602001610d59565b50506000910152565b60008151808452610d92816020860160208601610d56565b601f01601f19169290920160200192915050565b6020815260006109a16020830184610d7a565b600082601f830112610dca57600080fd5b8135602067ffffffffffffffff821115610de657610de6610b63565b8160051b610df5828201610b79565b9283528481018201928281019087851115610e0f57600080fd5b83870192505b84831015610e2e57823582529183019190830190610e15565b979650505050505050565b600080600080600060a08688031215610e5157600080fd5b8535610e5c81610b2e565b94506020860135610e6c81610b2e565b9350604086013567ffffffffffffffff80821115610e8957600080fd5b610e9589838a01610db9565b94506060880135915080821115610eab57600080fd5b610eb789838a01610db9565b93506080880135915080821115610ecd57600080fd5b50610eda88828901610baa565b9150509295509295909350565b600080600080600060a08688031215610eff57600080fd5b8535610f0a81610b2e565b94506020860135610f1a81610b2e565b93506040860135925060608601359150608086013567ffffffffffffffff811115610f4457600080fd5b610eda88828901610baa565b600060018201610f7057634e487b7160e01b600052601160045260246000fd5b5060010190565b600060208284031215610f8957600080fd5b81516109a181610b2e565b8183823760009101908152919050565b60208152816020820152818360408301376000818301604090810191909152601f909201601f19160101919050565b60208082526018908201527f546f6b656e20696e206f776e65727368697020636861696e0000000000000000604082015260600190565b60008060006060848603121561101f57600080fd5b83519250602084015161103181610b2e565b80925050604084015190509250925092565b634e487b7160e01b600052602160045260246000fd5b8281526040602082015260006110726040830184610d7a565b949350505050565b6000825161108c818460208701610d56565b9190910192915050565b6000602082840312156110a857600080fd5b505191905056fea26469706673582212200298ff637d93835dcb2099da9326155b1edab1cb3950e69abf15dfc94f32363e64736f6c63430008150033",
    "linkReferences": {}
  },
  "methodIdentifiers": {
    "executeCall(address,uint256,bytes)": "9e5d4c49",
    "isValidSignature(bytes32,bytes)": "1626ba7e",
    "nonce()": "affed0e0",
    "onERC1155BatchReceived(address,address,uint256[],uint256[],bytes)": "bc197c81",
    "onERC1155Received(address,address,uint256,uint256,bytes)": "f23a6e61",
    "onERC721Received(address,address,uint256,bytes)": "150b7a02",
    "owner()": "8da5cb5b",
    "supportsInterface(bytes4)": "01ffc9a7",
    "token()": "fc0c546a",
    "upgrade(address)": "0900f010"
  },
  "id": 3
}