{
  "abi": [
    {
      "inputs": [
        {
          "internalType": "address",
          "name": "initialOwner",
          "type": "address"
        }
      ],
      "stateMutability": "nonpayable",
      "type": "constructor"
    },
    {
      "inputs": [
        {
          "internalType": "address",
          "name": "owner",
          "type": "address"
        }
      ],
      "name": "OwnableInvalidOwner",
      "type": "error"
    },
    {
      "inputs": [
        {
          "internalType": "address",
          "name": "account",
          "type": "address"
        }
      ],
      "name": "OwnableUnauthorizedAccount",
      "type": "error"
    },
    {
      "anonymous": false,
      "inputs": [
        {
          "indexed": true,
          "internalType": "address",
          "name": "greetingSetter",
          "type": "address"
        },
        {
          "indexed": false,
          "internalType": "string",
          "name": "newGreeting",
          "type": "string"
        },
        {
          "indexed": false,
          "internalType": "bool",
          "name": "premium",
          "type": "bool"
        },
        {
          "indexed": false,
          "internalType": "uint256",
          "name": "value",
          "type": "uint256"
        }
      ],
      "name": "GreetingChange",
      "type": "event"
    },
    {
      "anonymous": false,
      "inputs": [
        {
          "indexed": true,
          "internalType": "address",
          "name": "previousOwner",
          "type": "address"
        },
        {
          "indexed": true,
          "internalType": "address",
          "name": "newOwner",
          "type": "address"
        }
      ],
      "name": "OwnershipTransferred",
      "type": "event"
    },
    {
      "inputs": [],
      "name": "contractOwner",
      "outputs": [
        {
          "internalType": "address",
          "name": "",
          "type": "address"
        }
      ],
      "stateMutability": "view",
      "type": "function"
    },
    {
      "inputs": [],
      "name": "greeting",
      "outputs": [
        {
          "internalType": "string",
          "name": "",
          "type": "string"
        }
      ],
      "stateMutability": "view",
      "type": "function"
    },
    {
      "inputs": [],
      "name": "owner",
      "outputs": [
        {
          "internalType": "address",
          "name": "",
          "type": "address"
        }
      ],
      "stateMutability": "view",
      "type": "function"
    },
    {
      "inputs": [],
      "name": "premium",
      "outputs": [
        {
          "internalType": "bool",
          "name": "",
          "type": "bool"
        }
      ],
      "stateMutability": "view",
      "type": "function"
    },
    {
      "inputs": [],
      "name": "renounceOwnership",
      "outputs": [],
      "stateMutability": "nonpayable",
      "type": "function"
    },
    {
      "inputs": [
        {
          "internalType": "string",
          "name": "_newGreeting",
          "type": "string"
        }
      ],
      "name": "setGreeting",
      "outputs": [],
      "stateMutability": "payable",
      "type": "function"
    },
    {
      "inputs": [],
      "name": "totalCounter",
      "outputs": [
        {
          "internalType": "uint256",
          "name": "",
          "type": "uint256"
        }
      ],
      "stateMutability": "view",
      "type": "function"
    },
    {
      "inputs": [
        {
          "internalType": "address",
          "name": "newOwner",
          "type": "address"
        }
      ],
      "name": "transferOwnership",
      "outputs": [],
      "stateMutability": "nonpayable",
      "type": "function"
    },
    {
      "inputs": [
        {
          "internalType": "address",
          "name": "",
          "type": "address"
        }
      ],
      "name": "userGreetingCounter",
      "outputs": [
        {
          "internalType": "uint256",
          "name": "",
          "type": "uint256"
        }
      ],
      "stateMutability": "view",
      "type": "function"
    },
    {
      "inputs": [],
      "name": "withdraw",
      "outputs": [],
      "stateMutability": "nonpayable",
      "type": "function"
    },
    {
      "stateMutability": "payable",
      "type": "receive"
    }
  ],
  "bytecode": {
    "object": "0x60e0604052601c60a09081527f4275696c64696e6720556e73746f707061626c6520417070732121210000000060c0526001906200003e9082620001c1565b506002805460ff1916905560006003553480156200005b57600080fd5b5060405162000c4338038062000c438339810160408190526200007e916200028d565b806001600160a01b038116620000ae57604051631e4fbdf760e01b81526000600482015260240160405180910390fd5b620000b981620000cc565b506001600160a01b0316608052620002bf565b600080546001600160a01b038381166001600160a01b0319831681178455604051919092169283917f8be0079c531659141344cd1fd0a4f28419497f9722a3daafe3b4186f6b6457e09190a35050565b634e487b7160e01b600052604160045260246000fd5b600181811c908216806200014757607f821691505b6020821081036200016857634e487b7160e01b600052602260045260246000fd5b50919050565b601f821115620001bc57600081815260208120601f850160051c81016020861015620001975750805b601f850160051c820191505b81811015620001b857828155600101620001a3565b5050505b505050565b81516001600160401b03811115620001dd57620001dd6200011c565b620001f581620001ee845462000132565b846200016e565b602080601f8311600181146200022d5760008415620002145750858301515b600019600386901b1c1916600185901b178555620001b8565b600085815260208120601f198616915b828110156200025e578886015182559484019460019091019084016200023d565b50858210156200027d5787850151600019600388901b60f8161c191681555b5050505050600190811b01905550565b600060208284031215620002a057600080fd5b81516001600160a01b0381168114620002b857600080fd5b9392505050565b60805161095a620002e96000396000818161014d015281816102130152610281015261095a6000f3fe6080604052600436106100955760003560e01c8063ce606ee011610059578063ce606ee01461013b578063cea49c3c1461016f578063e0a73a931461019c578063ef690cc0146101c6578063f2fde38b146101e857600080fd5b80633ccfd60b146100a1578063715018a6146100b85780638da5cb5b146100cd57806397feba9d14610104578063a41368621461012857600080fd5b3661009c57005b600080fd5b3480156100ad57600080fd5b506100b6610208565b005b3480156100c457600080fd5b506100b661033a565b3480156100d957600080fd5b506000546001600160a01b03165b6040516001600160a01b0390911681526020015b60405180910390f35b34801561011057600080fd5b5061011a60035481565b6040519081526020016100fb565b6100b66101363660046105f7565b61034e565b34801561014757600080fd5b506100e77f000000000000000000000000000000000000000000000000000000000000000081565b34801561017b57600080fd5b5061011a61018a3660046106a8565b60046020526000908152604090205481565b3480156101a857600080fd5b506002546101b69060ff1681565b60405190151581526020016100fb565b3480156101d257600080fd5b506101db61042a565b6040516100fb919061071e565b3480156101f457600080fd5b506100b66102033660046106a8565b6104b8565b336001600160a01b037f0000000000000000000000000000000000000000000000000000000000000000161461027d5760405162461bcd60e51b81526020600482015260156024820152742737ba103a34329031b7b73a3930b1ba27bbb732b960591b60448201526064015b60405180910390fd5b60007f00000000000000000000000000000000000000000000000000000000000000006001600160a01b03164760405160006040518083038185875af1925050503d80600081146102ea576040519150601f19603f3d011682016040523d82523d6000602084013e6102ef565b606091505b50509050806103375760405162461bcd60e51b81526020600482015260146024820152732330b4b632b2103a379039b2b7321022ba3432b960611b6044820152606401610274565b50565b6103426104f3565b61034c6000610520565b565b610371604051806060016040528060218152602001610904602191398233610570565b600161037d82826107b9565b506001600360008282546103919190610879565b90915550503360009081526004602052604081208054600192906103b6908490610879565b909155505034156103d3576002805460ff191660011790556103de565b6002805460ff191690555b336001600160a01b03167f94cbd7e04dca26a7667654f6448b2ca0a40fec602118dc5fd8c82b9cf3c645ad8260003411600060405161041f939291906108a0565b60405180910390a250565b6001805461043790610731565b80601f016020809104026020016040519081016040528092919081815260200182805461046390610731565b80156104b05780601f10610485576101008083540402835291602001916104b0565b820191906000526020600020905b81548152906001019060200180831161049357829003601f168201915b505050505081565b6104c06104f3565b6001600160a01b0381166104ea57604051631e4fbdf760e01b815260006004820152602401610274565b61033781610520565b6000546001600160a01b0316331461034c5760405163118cdaa760e01b8152336004820152602401610274565b600080546001600160a01b038381166001600160a01b0319831681178455604051919092169283917f8be0079c531659141344cd1fd0a4f28419497f9722a3daafe3b4186f6b6457e09190a35050565b6105b7838383604051602401610588939291906108c5565b60408051601f198184030181529190526020810180516001600160e01b03166395ed019560e01b1790526105bc565b505050565b6103378160006a636f6e736f6c652e6c6f679050600080835160208501845afa505050565b634e487b7160e01b600052604160045260246000fd5b60006020828403121561060957600080fd5b813567ffffffffffffffff8082111561062157600080fd5b818401915084601f83011261063557600080fd5b813581811115610647576106476105e1565b604051601f8201601f19908116603f0116810190838211818310171561066f5761066f6105e1565b8160405282815287602084870101111561068857600080fd5b826020860160208301376000928101602001929092525095945050505050565b6000602082840312156106ba57600080fd5b81356001600160a01b03811681146106d157600080fd5b9392505050565b6000815180845260005b818110156106fe576020818501810151868301820152016106e2565b506000602082860101526020601f19601f83011685010191505092915050565b6020815260006106d160208301846106d8565b600181811c9082168061074557607f821691505b60208210810361076557634e487b7160e01b600052602260045260246000fd5b50919050565b601f8211156105b757600081815260208120601f850160051c810160208610156107925750805b601f850160051c820191505b818110156107b15782815560010161079e565b505050505050565b815167ffffffffffffffff8111156107d3576107d36105e1565b6107e7816107e18454610731565b8461076b565b602080601f83116001811461081c57600084156108045750858301515b600019600386901b1c1916600185901b1785556107b1565b600085815260208120601f198616915b8281101561084b5788860151825594840194600190910190840161082c565b50858210156108695787850151600019600388901b60f8161c191681555b5050505050600190811b01905550565b8082018082111561089a57634e487b7160e01b600052601160045260246000fd5b92915050565b6060815260006108b360608301866106d8565b93151560208301525060400152919050565b6060815260006108d860608301866106d8565b82810360208401526108ea81866106d8565b91505060018060a01b038316604083015294935050505056fe53657474696e67206e6577206772656574696e6720272573272066726f6d202573a2646970667358221220e2ed4fb949c1cdf0626d704b47960f72f8016f9b7a9cec677da38a68f6816c1c64736f6c63430008150033",
    "linkReferences": {}
  },
  "methodIdentifiers": {
    "contractOwner()": "ce606ee0",
    "greeting()": "ef690cc0",
    "owner()": "8da5cb5b",
    "premium()": "e0a73a93",
    "renounceOwnership()": "715018a6",
    "setGreeting(string)": "a4136862",
    "totalCounter()": "97feba9d",
    "transferOwnership(address)": "f2fde38b",
    "userGreetingCounter(address)": "cea49c3c",
    "withdraw()": "3ccfd60b"
  },
  "id": 2
}